:100000000C94B2170C94F2170C94F2170C94F2178C
:100010000C94F2170C94F2170C94F2170C94F2173C
:100020000C94F2170C94F2170C94F2170C94F2172C
:100030000C94F2170C94F2170C94F2170C94F2171C
:100040000C94F2170C94AD8A0C94F2170C94F217DE
:100050000C94F2170C94F2170C94C5840C9493DB57
:100060000C94F2170C94C64A0C94BC4A0C94F217E8
:100070000C94F2170C94F2170C94F2170C94F217DC
:100080000C9470400C94F2170C94F2170C94F21725
:100090000C94F2170C94F2170C94F2170C94F217BC
:1000A0000C94F2170C94F2170C9442400C94F21733
:1000B0000C94F2170C94F2170C94F2170C94F2179C
:1000C0000C94F2170C94F2170C94F2170C94F2178C
:1000D0000C94F2170C94F2170C94F2170C94F2177C
:1000E0000C94F217084AD73B3BCE016E84BCBFFD8F
:1000F000C12F3D6C74319ABD56833DDA3D00C77FF8
:1001000011BED9E4BB4C3E916BAAAABE0000008090
:100110003F05A84CCDB2D44EB93836A9020C50B91F
:10012000918688083CA6AAAA2ABE000000803F004B
:100130004E414E494E495459494E46CDCCCC3D0ACC
:10014000D7233C17B7D13877CC2B329595E6241FAF
:10015000B14F0A000020410000C84200401C462068
:10016000BCBE4CCA1B0E5AAEC59D7400407A10F33B
:100170005A00A0724E18090010A5D4E80000E876D5
:1001800048170000E40B54020000CA9A3B0000002C
:10019000E1F505000080969800000040420F000045
:1001A00000A08601000000102700000000E8030006
:1001B0000000006400000000000A000000000001D0
:1001C00000000000002C76D888DC674F0823DFC1D0
:1001D000DFAE59E1B1B796E5E3E453C63AE651998B
:1001E0007696E8E6C28426EB898C9B62ED407C6FB4
:1001F000FCEFBC9C9F40F2BAA56FA5F490055A2A6B
:10020000F75C936B6CF9676DC11BFCE0E40D47FE76
:10021000F520E6B500D0ED902E030094357705006B
:1002200080841E080000204E0A000000C80C3333F2
:1002300033330F986E12831141EF8D2114893BE601
:100240005516CFFEE6DB18D1844B381BF77C1D908A
:100250001DA4BBE424203284725E228100C9F124F3
:10026000ECA1E53D27434F4D4D554E49434154497F
:100270004F4E0044525952554E004552524F525320
:1002800000494E464F004543484F0053544F50508D
:1002900045442E20005072696E7465722073746F2D
:1002A000707065642064756520746F206572726F6C
:1002B00072732E2046697820746865206572726FAB
:1002C0007220616E6420757365204D393939207450
:1002D0006F20726573746172742E202854656D707E
:1002E00065726174757265206973207265736574D7
:1002F0002E205365742069742061667465722072C3
:10030000657374617274696E67290A004E6F2043C9
:100310006865636B73756D2077697468206C696EAE
:1003200065206E756D6265722C204C617374204C73
:10033000696E653A20004E6F20436865636B737584
:100340006D2077697468206C696E65206E756D62CA
:1003500065722C204C617374204C696E653A2000E4
:10036000636865636B73756D206D69736D6174632C
:10037000682C204C617374204C696E653A20004CE7
:10038000696E65204E756D626572206973206E6FAF
:1003900074204C617374204C696E65204E756D62DB
:1003A00065722B312C204C617374204C696E653A58
:1003B00020004D3131300053657269616C207374D7
:1003C00061747573206D69736D617463680A00539D
:1003D000442072656164206572726F720A00212187
:1003E000204B494C4C206361757365642062792011
:1003F0004B494C4C20627574746F6E2F70696E0A95
:10040000002121204B494C4C2063617573656420A9
:10041000627920746F6F206D75636820696E616307
:10042000746976652074696D65202D20637572721C
:10043000656E7420636F6D6D616E643A2000627545
:1004400073793A2070617573656420666F722069F4
:100450006E7075740A00627573793A2070617573F5
:10046000656420666F7220757365720A0062757329
:10047000793A2070726F63657373696E670A004D15
:10048000656469612052656D6F766564004D6564D1
:10049000696120496E73657274656400506C6561B2
:1004A0007365205265736574005052494E5445522D
:1004B0002048414C5445440025533A202553004BD5
:1004C000494C4C45442E20005072696E7465722070
:1004D00068616C7465642E206B696C6C28292063DC
:1004E000616C6C6564210A0053544F505045442E92
:1004F00020005072696E7465722073746F7070653D
:10050000642064756520746F206572726F72732E3B
:100510002046697820746865206572726F72206168
:100520006E6420757365204D39393920746F2072DF
:100530006573746172742E202854656D70657261E4
:10054000747572652069732072657365742E20530B
:1005500065742069742061667465722072657374B5
:10056000617274696E67290A006563686F3A0045B5
:1005700072726F723A004F4646004F4E0042696CED
:10058000696E656172204C6576656C696E6720479F
:100590007269643A0A0021212053544F502063614C
:1005A0006C6C65642062656361757365206F66209D
:1005B000424C546F756368206572726F72202D20F3
:1005C000726573746172742077697468204D39396B
:1005D000390A0021212053544F502063616C6C650F
:1005E000642062656361757365206F6620424C54B8
:1005F0006F756368206572726F72202D207265734B
:10060000746172742077697468204D3939390A0031
:100610004F46460A0046616465204865696768740C
:100620002000426564204C6576656C696E67200029
:100630004661696C656420746F20656E61626C65EB
:1006400020426564204C6576656C696E670A0049D6
:100650006E76616C6964206D6573682E0A00507255
:100660006F62696E6720506F696E74002553202594
:10067000692F2569002E0A002F0050726F62696E83
:1006800067206D65736820706F696E742000202884
:1006900044525952554E2900473239204175746FE2
:1006A00020426564204C6576656C696E67003F206A
:1006B000284C2C522C462C4229206F7574206F66D2
:1006C00020626F756E64732E0A003F28562965728A
:1006D000626F7365206C6576656C20696D706C6106
:1006E000757369626C652028302D34292E0A00420A
:1006F0006164205A2076616C75650A004E6F206235
:10070000696C696E65617220677269640A002044D1
:100710000020204D3230302053002028446973617E
:10072000626C6564293A0046696C616D656E74207F
:1007300073657474696E67730020204D3230312008
:1007400058004D617820416363656C65726174691E
:100750006F6E2028756E6974732F73322900202004
:100760004D3230332058004D6178206665656472E3
:10077000617465732028756E6974732F7329002066
:10078000520020204D323034205000416363656CAC
:1007900065726174696F6E2028756E6974732F734A
:1007A00032292028503C7072696E742D6163636534
:1007B0006C3E20523C726574726163742D61636398
:1007C000656C3E20543C74726176656C2D61636388
:1007D000656C3E2900204A00205400205300202050
:1007E0004D323035204200416476616E636564208D
:1007F00028423C6D696E5F7365676D656E745F74EA
:10080000696D655F75733E20533C6D696E5F66650B
:100810006564726174653E20543C6D696E5F7472EC
:100820006176656C5F66656564726174653E204AD9
:100830003C6A756E635F6465763E29002044002043
:10084000490020204D333031205000486F74656ED0
:1008500064205049440020580020204D61783A20FF
:1008600000200020204D696E3A2000203B2000200F
:10087000204D3231312053003B200020496E7661FB
:100880006C69642065787472756465722000473203
:100890002F47332062616420706172616D657465F9
:1008A00072730A00536C6565702E2E2E005A20500C
:1008B000726F62652050617374204265640A005A49
:1008C0002050726F6265205061737420426564002D
:1008D0004732384C3000205A3A200020593A200044
:1008E00042656420583A20004D65736820706F6936
:1008F0006E74206F7574206F662072616E67650A72
:1009000000436C69636B20746F20526573756D656D
:100910002E2E2E004E6F204D6F76652E00456E6494
:100920002066696C65206C6973740A0042656769AA
:100930006E2066696C65206C6973740A004E6F20C6
:100940006D656469610A00286E6F2066696C6529AF
:100950000043757272656E742066696C653A20009A
:100960005344207072696E74696E67206279746591
:1009700020004E6F74205344207072696E74696E4B
:10098000670A002E0A0044656C6574696F6E206604
:1009900061696C65642C2046696C653A2000466983
:1009A0006C652064656C657465643A002569730044
:1009B00025696D20256973002569682025696D20EA
:1009C00025697300256964202569682025696D20E3
:1009D00025697300256979202569642025696820C7
:1009E00025696D20256973005072696E74207469E1
:1009F0006D653A20006F6B006F66660086028102AB
:100A00007A027302650244454255473A004D31313E
:100A1000322053687574646F776E004D3131332026
:100A200053003344205072696E746572204F4646FD
:100A30002E002F2F004D31343520533C696E6465F4
:100A4000783E206F7574206F662072616E67652036
:100A500028302D31290A003F4A206F7574206F66B7
:100A60002072616E67652028302E303120746F202F
:100A7000302E33290A0046523A0020466C6F773AEE
:100A800020003A200020536572766F2000206F7599
:100A900074206F662072616E67650A005365727616
:100AA0006F20004261627973746570205A00507241
:100AB0006F6265204F6666736574205A0050726FCE
:100AC0006265204F6666736574205A00646973001E
:100AD000656E0043290A0061626C656420286D69B7
:100AE0006E2074656D702000436F6C6420657874AF
:100AF00072756465732061726520004D3432312057
:100B0000696E636F727265637420706172616D6586
:100B10007465722075736167650A004D657368209E
:100B2000706F696E74206F7574206F662072616ECD
:100B300067650A004F666673657473204170706C58
:100B4000696564004572723A20546F6F2066617265
:100B50002100546F6F206661722066726F6D207283
:100B600065666572656E636520706F696E740A00F4
:100B7000454550524F4D204F4B0A004D38340044EC
:100B80006F6E65207072696E74696E672066696C3D
:100B9000650A004D3737004D333100496E76616C80
:100BA00069642065787472756465720A0020204D4E
:100BB000323036205800486F6D65206F6666736569
:100BC00074004361703A00434F4E4649475F4558B1
:100BD000504F5254004D4541545041434B00434FF8
:100BE0004F4C45525F54454D504552415455524526
:100BF000004348414D4245525F54454D5045524196
:100C00005455524500424142595354455050494E63
:100C1000470041524353004D4F54494F4E5F4D4F93
:100C200044455300544845524D414C5F50524F5437
:100C3000454354494F4E00455854454E4445445F42
:100C40004D3230004C4F4E475F46494C454E414D6A
:100C500045004155544F5245504F52545F53445FE5
:100C60005354415455530053445F5752495445001F
:100C70005245504541540053444341524400505260
:100C80004F4D50545F535550504F525400484F539E
:100C9000545F414354494F4E5F434F4D4D414E4485
:100CA0005300454D455247454E43595F50415253BD
:100CB000455200434153455F4C494748545F4252B7
:100CC000494748544E45535300544F47474C455F9E
:100CD0004C494748545300534F4654574152455F7F
:100CE000504F574552004255494C445F504552437E
:100CF000454E54004C4556454C494E475F4441547F
:100D000041005A5F50524F42450052554E4F555484
:100D1000004155544F4C4556454C005052494E5495
:100D20005F4A4F420050524F47524553530041557E
:100D3000544F5245504F52545F54454D5000415509
:100D4000544F5245504F52545F504F5300564F4CE2
:100D5000554D455452494300454550524F4D004270
:100D6000494E4152595F46494C455F5452414E539A
:100D70004645520053455249414C5F584F4E5F58CB
:100D80004F4646004649524D574152455F4E414DF0
:100D9000453A4D61726C696E20322E302E392E33F9
:100DA00020284A616E2032332032303232203038EF
:100DB0003A33303A35342920534F555243455F4337
:100DC0004F44455F55524C3A6769746875622E63AB
:100DD0006F6D2F4D61726C696E4669726D776172CD
:100DE000652F4D61726C696E2050524F544F434FC6
:100DF0004C5F56455253494F4E3A312E30204D41AB
:100E00004348494E455F545950453A334420507247
:100E1000696E7465722045585452554445525F437B
:100E20004F554E543A3120555549443A63656465EF
:100E3000326132662D343161322D343734382D39F8
:100E40006231322D63353563363266333637666646
:100E50000A00290A0020746F20003F5A206F757421
:100E6000206F662072616E6765202800290A0020C5
:100E7000746F20003F59206F7574206F6620726177
:100E80006E676520282D00290A0020746F20003F1E
:100E900058206F7574206F662072616E6765202818
:100EA0002D00203B0020204D3835312058005A2D90
:100EB00050726F6265204F66667365740020573A02
:100EC00000436F6F6C696E672E2E2E00486561744B
:100ED000696E672E2E2E0045312025530020573A8B
:100EE0000042656420436F6F6C696E672E2E2E0082
:100EF0004265642048656174696E672E2E2E00235A
:100F0000646566696E652044454641554C545F00F2
:100F10004B6420004B6920004B7020005049442056
:100F20004175746F74756E652066696E6973686566
:100F300064212050757420746865206C617374207E
:100F40004B702C204B6920616E64204B6420636FD2
:100F50006E7374616E74732066726F6D2062656C5F
:100F60006F7720696E746F20436F6E666967757264
:100F70006174696F6E2E680A00504944204175748F
:100F80006F74756E65206661696C65642120746993
:100F90006D656F75740A00504944204175746F7413
:100FA000756E65206661696C6564212054656D709D
:100FB0006572617475726520746F6F206869676807
:100FC0000A00504944204379636C6573002553201F
:100FD00025692F256900204B643A2000204B693A8F
:100FE0002000204B703A200020436C6173736963CA
:100FF00020504944200A002054753A2000204B75A7
:101000003A2000206D61783A2000206D696E3A2008
:101010000020643A200020626961733A2000576121
:10102000697420666F7220686561742075702E2E59
:101030002E00504944204175746F74756E6520739D
:10104000746172740A00504944204175746F74755C
:101050006E65206661696C6564212054656D7065FC
:1010600072617475726520746F6F20686967680AB1
:1010700000504944204175746F74756E6520666137
:10108000696C6564212042616420686561746572E1
:101090002069640A00504944204175746F74756E6C
:1010A0006500A10000006900A20000006300B0001C
:1010B00000000900C10000004100C2000000410022
:1010C000C30000004100C40000004100C500000052
:1010D0004100C60000004145C70000004300C800B1
:1010E00000004500C90000004500CD000000490097
:1010F000D10000004E00D50000004F00D6000000D7
:101100004F00D70000007800DC0000005500DD0033
:1011100000005900E00000006100E10000006100F3
:10112000E20000006100E30000006100E400000054
:101130006100E50000006100E60000006165E70075
:1011400000006300E80000006500E90000006500A1
:10115000EA0000006500EB0000006500EC00000004
:101160006900ED0000006900EE0000006900EF007A
:1011700000006900F10000006E00F20000006F0046
:10118000F30000006F00F40000006F00F5000000A5
:101190006F00F60000006F00F80000006F00F9001B
:1011A00000007500FA0000007500FB0000007500EB
:1011B000FC0000007500FD0000007900FF00000049
:1011C00079000401000041000501000061000601F2
:1011D000000043000701000063000C010000430011
:1011E0000D01000063000E01000044000F0100002B
:1011F00064001101000064001901000065001A017B
:10120000000045001B01000065001F010000670091
:101210003001000049003101000069004101000077
:101220004C00420100006C00430100004E004401EC
:1012300000006E00480100006E00580100005200DE
:101240005901000072005A01000053005B010000C8
:1012500073005F0100007300600100005300610132
:10126000000073006501000074006F01000075004C
:101270007C0100007A007D0100005A007E01000020
:101280007A00920100006600E3020000780022204C
:1012900000002E001E210000507822210000544D35
:1012A000902100003C2D922100002D3EB021000035
:1012B0000300BB21000004003C2200007E00482205
:1012C00000007E3D60220000213D612200003D00C3
:1012D000642200003C3D652200003E3DF1230000F9
:1012E0000700A03000003D0021F301000200C2F41D
:1012F00001000500A2000000EC00B0000000DF00CB
:10130000E4000000E100F6000000EF00F70000003C
:10131000FD00FC000000F500E3020000EB00870385
:101320000000A5008F030000F40098030000F20005
:101330009E030000E300A3030000F600A9030000E1
:10134000F400AC030000E000AD030000E300B103D3
:101350000000E000B2030000E200B5030000E3007B
:10136000B8030000F200BC030000E400BE0300006C
:10137000E300C0030000F700C1030000E600C30360
:101380000000E500902100007F00922100007E0017
:101390001A220000E8001E220000F3008825000049
:1013A000FF0002300000A1000C300000A2000D3050
:1013B0000000A3009B300000DE009C300000DF0036
:1013C000A03000003D00A1300000A700A2300000C6
:1013D000B100A3300000A800A4300000B200A53086
:1013E0000000A900A6300000B300A7300000AA004A
:1013F000A8300000B400A9300000AB00AA30000003
:10140000B500AB300000B600AC300000B6DEAD3049
:101410000000B700AE300000B7DEAF300000B8000B
:10142000B0300000B8DEB1300000B900B2300000CA
:10143000B9DEB3300000BA00B4300000BADEB53017
:101440000000BB00B6300000BBDEB7300000BC00BF
:10145000B8300000BCDEB9300000BD00BA3000007A
:10146000BDDEBB300000BE00BC300000BEDEBD30C3
:101470000000BF00BE300000BFDEBF300000C00073
:10148000C0300000C0DEC1300000C100C23000002A
:10149000C1DEC3300000AF00C4300000C200C53060
:1014A0000000C2DEC6300000C300C7300000C3DE4B
:1014B000C8300000C400C9300000C4DECA300000DB
:1014C000C500CB300000C600CC300000C700CD30D6
:1014D0000000C800CE300000C900CF300000CA00B4
:1014E000D0300000CADED1300000CADFD2300000A8
:1014F000CB00D3300000CBDED4300000CBDFD530C2
:101500000000CC00D6300000CCDED7300000CCDFAD
:10151000D8300000CD00D9300000CDDEDA30000038
:10152000CDDFDB300000CE00DC300000CEDEDD3071
:101530000000CEDFDE300000CF00DF300000D00042
:10154000E0300000D100E1300000D200E2300000C5
:10155000D300E3300000AC00E4300000D400E530FC
:101560000000AD00E6300000D500E7300000AE001E
:10157000E8300000D600E9300000D700EA30000073
:10158000D800EB300000D900EC300000DA00ED307C
:101590000000DB00EF300000DC00F2300000A600AD
:1015A000F3300000DD00F4300000B3DEF73000005F
:1015B000DCDEFA300000A6DEFB300000A500FC30C7
:1015C0000000B000FD300000A400074E0000FB004A
:1015D00086510000FC0043530000FA0064FF000045
:1015E000A40065FF0000A50066FF0000A60067FFDD
:1015F0000000A70068FF0000A80069FF0000A90024
:101600006AFF0000AA006BFF0000AB006CFF000047
:10161000AC006DFF0000AD006EFF0000AE006FFF7C
:101620000000AF0070FF0000B00071FF0000B100CB
:1016300072FF0000B20073FF0000B30074FF0000EF
:10164000B40075FF0000B50076FF0000B60077FF1C
:101650000000B70078FF0000B80079FF0000B90073
:101660007AFF0000BA007BFF0000BB007CFF000097
:10167000BC007DFF0000BD007EFF0000BE007FFFBC
:101680000000BF0080FF0000C00081FF0000C1001B
:1016900082FF0000C20083FF0000C30084FF00003F
:1016A000C40085FF0000C50086FF0000C60087FF5C
:1016B0000000C70088FF0000C80089FF0000C900C3
:1016C0008AFF0000CA008BFF0000CB008CFF0000E7
:1016D000CC008DFF0000CD008EFF0000CE008FFFFC
:1016E0000000CF0090FF0000D00091FF0000D1006B
:1016F00092FF0000D20093FF0000D30094FF00008F
:10170000D40095FF0000D50096FF0000D60097FF9B
:101710000000D70098FF0000D80099FF0000D90012
:101720009AFF0000DA009BFF0000DB009CFF000036
:10173000DC009DFF0000DD009EFF0000DE009FFF3B
:101740000000DF00E5FF00005C0000000000010277
:1017500004040000001C1C0C04040402010000002E
:10176000000004081000000000002D2D2D2D2D2D4F
:10177000007C4D61726C696E7C002D2D2D2D2D2D00
:1017800000001C1F11111F00000006191803130C84
:1017900000040E1F041C000000000E1315110E00A3
:1017A000001C10181705060500040A0A0A0A111180
:1017B0000E0C12120C00000000001F1511151F0066
:1017C0000042656400456E636C6F73757265002539
:1017D00068753A25303268750025303268753A25CB
:1017E00030326875002530326875272530326875CB
:1017F000002D2D2D005344002020202020202000EB
:1018000020202020005072696E742041626F727433
:101810006564004D32350050617573696E672E2E18
:101820002E004D32340050726F6265205A204F6690
:10183000667365740046696C2E204469612E00450C
:1018400020696E206D6D5E33002002204661637456
:10185000002002204D6178002002204D696E004F6B
:101860006666004F6E004175746F74656D70004D53
:10187000696E2054726176656C2056656C004D6906
:101880006E2056656C6F63697479004D61782045F0
:101890002056656C004D6178205A2056656C004DCD
:1018A000617820592056656C004D6178205820568B
:1018B000656C004D6178204520416363656C004D87
:1018C0006178205A20416363656C004D617820592E
:1018D00020416363656C004D61782058204163634B
:1018E000656C0054726176656C20416363656C00C1
:1018F0005265747261637420416363656C00416377
:1019000063656C0050726F6265205A204F66667383
:1019100065740050726F62652059204F666673656A
:10192000740050726F62652058204F66667365744C
:1019300000452073746570732F6D6D005A205374C9
:101940006570732F6D6D00592053746570732F6D22
:101950006D00582053746570732F6D6D004164766F
:10196000616E6365642053657474696E6773003FCC
:101970000043616E63656C00496E6974004D3432DA
:101980003800496E697469616C697A652045455013
:10199000524F4D0046696C616D656E740054656D03
:1019A00070657261747572650053746570732F6D24
:1019B0006D0050726F6265204F66667365747300C8
:1019C0004A756E6374696F6E204465760041636387
:1019D000656C65726174696F6E0056656C6F6369E2
:1019E00074790053657420486F6D65204F66667387
:1019F00065747300436F6E66696775726174696FB1
:101A00006E0041425300504C410053572D4D6F64BE
:101A1000650053746F77004465706C6F790053658F
:101A20006C662D546573740052657365740042656D
:101A300064004E6F7A7A6C650046616E2053706563
:101A4000656400436F6E66696775726174696F6E75
:101A500000526573746F72652044656661756C74BD
:101A600073004C6F61642053657474696E67730012
:101A700053746F72652053657474696E6773005098
:101A8000726568656174202420436F6E6600424C65
:101A9000546F7563680050726F6265205A204F66FC
:101AA0006673657400416476616E63656420536596
:101AB0007474696E6773004D61696E003F00426126
:101AC000636B0053746F70004E6F204D65646961E5
:101AD000005072696E742066726F6D204D65646986
:101AE00061004368616E6765204D65646961004D02
:101AF000323100436F6E66696775726174696F6E2B
:101B00000054656D7065726174757265004D6F7417
:101B1000696F6E00526573756D65205072696E74E1
:101B20000054756E650053746F70205072696E7446
:101B3000005061757365205072696E7400496E665D
:101B40006F2053637265656E003F00537461727459
:101B5000205072696E740043616E63656C00507250
:101B6000696E740043616E6E6F7420656E74657289
:101B7000207375626469723A200005202E2E004D94
:101B800061696E002100486F74656E6420746F6F28
:101B900020636F6C64004261636B0050726F636519
:101BA0006564004D6F74696F6E0044697361626CA7
:101BB00065205374657070657273004D383400464B
:101BC00061646520486569676874004F6666004F08
:101BD0006E00426564204C6576656C696E67004CEA
:101BE0006576656C20426564004732394E00417568
:101BF000746F20486F6D6500473238004D61696E23
:101C0000005072656865617420242042656400504C
:101C1000726568656174202420456E640054656DAA
:101C2000706572617475726500061A021A436F6FEF
:101C30006C646F776E005072656865617420240073
:101C400046616E20537065656400426564004E6FA6
:101C50007A7A6C65004D61696E0050726F62652022
:101C60005A204F666673657400466C6F7700466154
:101C70006E20537065656400426564004E6F7A7A29
:101C80006C65005370656564004D61696E006F702E
:101C9000656E00545249474745524544003A20007A
:101CA0007A5F6D696E00795F6D696E00785F6D694E
:101CB0006E005265706F7274696E6720656E647332
:101CC000746F70207374617475730A0020746F6F81
:101CD000206C6F6E6720657874727573696F6E2003
:101CE00070726576656E7465640A0020636F6C645B
:101CF00020657874727573696F6E20707265766591
:101D00006E7465640A00486F6D6520257325732520
:101D10007320466972737400000000000000000028
:101D2000000000005761726E696E673A20486F6D5F
:101D3000696E672042756D702044697669736F72B1
:101D4000203C20310A000202040000484300004801
:101D500043000048430000A0400000A040000000F5
:101D60004000004843000048430000484300000092
:101D700000000000000000000053657474696E6785
:101D8000732053746F72656400290A0020627974AD
:101D900065733B20637263200053657474696E67DA
:101DA000732053746F726564202800454550524F6C
:101DB0004D20496E697469616C697A65640A0048EE
:101DC000617264636F6465642044656661756C74F8
:101DD0002053657474696E6773204C6F6164656429
:101DE0000A0020286D6D2900203B204C6576656C2B
:101DF000696E67200020204D343230205300417539
:101E0000746F20426564204C6576656C696E67006E
:101E100020460020420020480020204D313435204B
:101E200053004D6174657269616C206865617475F9
:101E30007020706172616D657465727300204A0074
:101E40002020473239205720490020204D31343995
:101E50002043203B20556E69747320696E204365D2
:101E60006C736975730A0054656D70657261747581
:101E7000726520556E697473002020473231203B13
:101E8000004C696E65617220556E6974730045453A
:101E900050524F4D206461746173697A6520657298
:101EA000726F722E0A00290A002062797465733BF2
:101EB0002063726320002073746F72656420736501
:101EC0007474696E6773207265747269657665648F
:101ED000202800202863616C63756C617465642937
:101EE000210A0020213D2000454550524F4D2043FE
:101EF0005243206D69736D61746368202D202873CF
:101F0000746F7265642920002053697A653A200055
:101F1000496E6465783A20000000964300009643BD
:101F20000000A0400000C8410000A0420000A04204
:101F30000000C8430000B042B80B0000B80B00001E
:101F40006400000010270000204D61726C696E3D36
:101F5000563836290A00454550524F4D2076657255
:101F600073696F6E206D69736D61746368202845B5
:101F70004550524F4D3D0024F4D43050C38E20C202
:101F8000A24017828B7011127A910D816CD90AA828
:101F900061E108C7586607615143061E4B5D05C1E4
:101FA00045A7041A411104093D98037139310340D2
:101FB00036DB0265339102D4305402802E1D026359
:101FC0002CEE01752AC501B028A001102781018FD0
:101FD0002564012B244B01E0223401AC211F018D2B
:101FE000200D01801FFC00841EED00971DDF00B84E
:101FF0001CD200E61BC600201BBC00641AB200B253
:1020000019A8000A19A0006A189900D11791004078
:10201000178B00B516840031167E00B31579003A8F
:10202000157300C7146F0058146A00EE1366008819
:1020300013630025135E00C7125B006C1257001576
:10204000125400C111510070114F0021114B00D6E4
:102050001049008D1047004610440002104200C095
:102060000F4000800F3E00420F3C00060F3B00CBAC
:102070000E3800930E37005C0E3500270E3400F347
:102080000D3200C10D3100900D3000600D2E003278
:102090000D2D00050D2C00D90C2B00AE0C29008550
:1020A0000C29005C0C2700350C27000E0C2600E8DC
:1020B0000B2400C40B2400A00B23007D0B23005A2B
:1020C0000B2100390B2100180B2000F80A1F00D942
:1020D0000A1E00BB0A1E009D0A1D00800A1D006327
:1020E0000A1C00470A1B002C0A1B00110A1A00F7E1
:1020F000091A00DD091900C4091900AB0919009279
:102100000917007B091800630917004C09160036EF
:10211000091600200916000A091500F5081500E047
:10212000081400CC081400B8081400A40814009087
:102130000813007D0812006B0813005808120046AF
:1021400008120034081100230811001208110001C0
:10215000081100F0071000E0071000D0071000C0C1
:10216000071000B0070F00A107100091070E0083B1
:10217000070F0074070F0065070E0057070E004990
:10218000070E003B070D002E070E0020070D001361
:10219000070D0006070D00F9060C00ED060D00E026
:1021A000060C00D4060C00C8060C00BC060C00B0DF
:1021B000060C00A4060B0099060C008D060B00828D
:1021C000060B0077060B006C060B0061060A005731
:1021D000060B004C060A0042060A0038060A002ECA
:1021E000060A0024060A001A060A0010060900075B
:1021F000060A00FD050900F4050900EB050900E2E7
:10220000050900D9050900D0050900C7050900BE68
:10221000050900B5050800AD050800A50509009CE5
:10222000050800940508008C050800840508007C5A
:10223000050800740508006C050700650508005DC9
:10224000050700560508004E050700470507004032
:1022500005080038050700310507002A0507002397
:102260000507001C050600160507000F05070008F6
:1022700005060002050700FB040600F5040700EE52
:10228000040600E8040600E2040700DB040600D5AB
:10229000040600CF040600C9040600C3040600BDFE
:1022A000040600B7040600B1040500AC040600A64D
:1022B000040600A00405009B040600950405009098
:1022C0000406008A04050085040500800406007ADF
:1022D00004050075040500700405006B0405006624
:1022E000040500610405005C040500570405005264
:1022F0000405004D04050048040500430405003EA4
:102300000404003A04050035040500300404002CE0
:1023100004050027040400230405001E0404001A19
:1023200004040016040500110404000D040400094F
:102330000405000404040000040400FC030400F885
:10234000030400F4030400F0030400EC030400E8B9
:10235000030400E4030400E0030400DC030400D8E9
:10236000030400D4030400D0030400CC030400C819
:10237000030300C503030024F404D9201BC40C5C30
:102380000E9804C4095F0265077101F405F900FBAA
:1023900004B30048048700C10369005803550003D3
:1023A000034500BE023A008402310053022A00298C
:1023B00002250004022000E4011C00C8011900AF3E
:1023C00001170098011400840113007101100061CD
:1023D00001100051010E0043010D0036010B002BCE
:1023E000010B0020010B00150109000C010900037D
:1023F000010800FB000800F3000800EB000700E400
:10240000000600DE000600D8000600D2000600CC60
:10241000000500C7000500C2000500BD000400B9AA
:10242000000400B5000400B1000400AD000400A9E0
:10243000000400A5000300A20003009F0004009B0D
:102440000003009800030095000200930003009031
:102450000003008D0002008B00030088000200864C
:1024600000020084000300810002007F0002007D62
:102470000002007B00020079000200770001007674
:102480000002007400020072000100710002006F7F
:102490000002006D0001006C0002006A000100698A
:1024A0000002006700010066000100650001006491
:1024B0000002006200010061000100600001005F95
:1024C0000002005D0001005C0001005B0001005A99
:1024D000000100590001005800010057000100569A
:1024E000000100550001005400010053000000539A
:1024F0000001005200010051000100500001004F96
:102500000001004E0000004E0001004D0001004C93
:102510000001004B0000004B0001004A000100498F
:10252000000100480000004800010047000100468B
:102530000000004600010045000000450001004485
:10254000000100430000004300010042000000427F
:102550000001004100000041000100400001003F77
:102560000000003F0001003E0000003E0001003D71
:102570000000003D0001003C0000003C0000003C69
:102580000001003B0000003B0001003A0000003A5F
:102590000001003900000039000100380000003857
:1025A000000000380001003700000037000100364D
:1025B0000000003600000036000100350000003544
:1025C0000000003500010034000000340000003439
:1025D000000100330000003300000033000100322E
:1025E0000000003200000032000100310000003124
:1025F0000000003100010030000000300000003019
:102600000001002F0000002F0000002F0000002F0D
:102610000001002E0000002E0000002E0001002D01
:102620000000002D0000002D0000002D0001002CF6
:102630000000002C0000002C0000002C0001002BEA
:102640000000002B0000002B0000002B0001002ADE
:102650000000002A0000002A0000002A00010029D2
:1026600000000029000000290000002900000029C6
:1026700000010028000000280000002800000028B9
:1026800000000028000100270000002700000027AC
:10269000000000270000002700010026000000269F
:1026A0000000002600000026000000260001002592
:1026B0000000002500000025000000250000002586
:1026C0000000002500010024000000240000002478
:1026D000000000240000002400010023000000236B
:1026E000000000230000002300000023000000235E
:1026F0000000002300010022000000220000002250
:102700000000002200000022000000220001002141
:102710000000002100000021000000210000002135
:102720000000002100000021000100200000002026
:102730000000002000000020000000200000002019
:1027400000000020000000200001001F0000001F0A
:102750000000001F0000001F0000001F0000001FFD
:102760000000001F0001001E0000001E0000001EEF
:102770000000001E000000043700001E2900005168
:102780001B00005810000010090000CC0400007865
:102790000200004101000020436F756E7420583A1A
:1027A00000426564004531004500626564002C20EC
:1027B00073797374656D2073746F70706564212014
:1027C0004865617465725F49443A200048656174E8
:1027D000696E67204661696C65640048656174696B
:1027E0006E67206661696C6564004572723A204DBF
:1027F000415854454D50004D415854454D5020745A
:102800007269676765726564004572723A204D4966
:102810004E54454D50004D494E54454D5020747214
:102820006967676572656400544845524D414C20A4
:1028300052554E4157415900546865726D616C2084
:1028400052756E6177617900202F002042403A0076
:1028500020403A007C3C3E5E2B3D3F2F5B5D3B2C95
:102860002A225C0043616E6E6F74206F70656E206B
:1028700073756264697220004D6564696120496EF8
:102880006974204661696C0053442063617264205E
:102890006F6B0A006F70656E526F6F7420666169AE
:1028A0006C65640A00766F6C756D652E696E69746F
:1028B000206661696C65640A004E6F205344206392
:1028C0006172640A000A4D3234004D3233202573A0
:1028D000002E0A006F70656E206661696C65642C5D
:1028E0002046696C653A200046696C652073656C0A
:1028F00065637465640A002053697A653A2000466E
:10290000696C65206F70656E65643A2000454E44C1
:1029100020535542524F5554494E450A00222070CB
:102920006F73002220706172656E743A22005355F5
:1029300042524F5554494E452043414C4C207461FE
:10294000726765743A220053756263616C6C204F44
:10295000766572666C6F770045786365656465645B
:10296000206D617820535542524F5554494E4520B1
:1029700064657074683A0057726974696E67207490
:102980006F2066696C653A20006672657368006442
:102990006F696E67002066696C653A20004E6F773C
:1029A00020002F6175746F25632E67006D61726C56
:1029B000696E66772E6F7267006D61726C696E6604
:1029C000772E6F726700322E302E392E3300322E62
:1029D000302E392E33006D61726C696E66772E6F02
:1029E0007267006D61726C696E66772E6F72670038
:1029F00020322E302E392E330070012C0190012709
:102A000001B0012201C0011D01F0011801100213E3
:102A10000130020E016002090190020401C002FFB0
:102A2000000003FA004003F5008003F000D003EB40
:102A3000002004E6007004E100E004DC004005D75B
:102A400000C005D2004006CD00D006C8008007C3F4
:102A5000003008BE00F008B900C009B400B00AAFE9
:102A600000B00BAA00D00CA500000EA000500F9BD8
:102A700000C01096005012910000148C00C0158701
:102A800000B0178200B0197D00D01B7800001E73C3
:102A90000040206E0090226900F024640040275F0F
:102AA0000090295A00E02B5500102E500020304B8A
:102AB0000010324600E033410090353C00103737BB
:102AC0000070383200A0392D00B03A2800A03B2316
:102AD00000603C1E00103D1900903D1400103E0F98
:102AE00000703E0A00C03E0500003F0000403FFB72
:102AF000FF803FF6FFC03FF1FF2020506C616E6EFB
:102B0000657242756666657242797465733A200033
:102B10002046726565204D656D6F72793A20002000
:102B2000436F6D70696C65643A204A616E20323380
:102B300020323032320A00204C61737420557064A8
:102B4000617465643A20323032312D30392D3033A2
:102B5000207C20417574686F723A2028424F4152A0
:102B6000445F4D4B535F4241534520666F72205086
:102B7000525553412069332C204D4B532047656EED
:102B80002D325A2056312E31290A004D61726C695E
:102B90006E20322E302E392E330A0020536F667489
:102BA000776172652052657365740A0020576174FD
:102BB0006368646F672052657365740A002042720F
:102BC0006F776E206F75742052657365740A0020EC
:102BD00045787465726E616C2052657365740A0085
:102BE000506F77657255700A0073746172740A00D1
:102BF0004732385859004D31303031006F6B006525
:102C000072726F722077726974696E6720746F20B8
:102C100066696C650A00446F6E6520736176696E43
:102C2000672066696C652E0A004D323900456E6476
:102C300073746F707300255320256320256320254E
:102C40006320256300205A3A0020593A0020583A60
:102C500000656E6473746F7073206869743A200045
:102C600000000A0B02090C0D0E0807030401000006
:102C70000000000000000000000000000000000054
:102C80000000000000000000000000001211100011
:102C90000000000000000000000000000000000034
:102CA000000000000000004D6F76652025736D6DFB
:102CB000004D6F766520302E316D6D004D6F76655D
:102CC00020316D6D004D6F76652031306D6D004D9A
:102CD0006F76652041786973004D6F766520457881
:102CE000747275646572004D6F7665205A004D6F81
:102CF00076652059004D6F76652058005072696ED8
:102D0000742066726F6D204D6564696100486F6D57
:102D1000696E67204661696C656400FFFFFF507251
:102D20006F62696E67204661696C65640A00507263
:102D30006F62696E67204661696C656400205A3A6B
:102D4000200020593A200042656420583A20003380
:102D500044205072696E7465722052656164792EE8
:102D6000005072696E74696E672E2E2E0050726963
:102D70006E742050617573656400220A00556E6B95
:102D80006E6F776E20636F6D6D616E643A20220006
:102D9000204500205A0020590020204D393220586B
:102DA0000053746570732070657220756E697400CD
:102DB000DB0FC93F45BCDA3F8FB30240FCF0274030
:102DC00056946140FE4B9B4084A5D840E0231841B7
:102DD000346A5641E859974164DBD5416E27174262
:102DE000B4B75542CE1A9742C8AED542B5885A43B9
:102DF000D40684BFA65FA7BF7443E0BF10B11AC05A
:102E00001C2C58C0E8F697C0B849D6C04E4E17C122
:102E100024D355C1802497C1A0B5D5C1121A17C2B9
:102E200044AE55C2781797C26CACD5C267885AC3F6
:102E300020746F6F206C6F6E672065787472757385
:102E4000696F6E2070726576656E7465640A002025
:102E5000636F6C6420657874727573696F6E20702F
:102E6000726576656E7465640A006F6B0A00526560
:102E700073656E643A200020453A00205A3A0020DB
:102E8000593A00583A0000002200250028002B0083
:102E90002E003100340002010000050108010B0181
:102EA00000002100240027002A002D0030003300FC
:102EB00001010000040107010A01050505050705D8
:102EC00008080808020202020A0A080804040404A6
:102ED00001010101010101010303030303030303D2
:102EE000040707070C0C0C0C0C0C0C0C0202020261
:102EF00006060606060606060B0B0B0B0B0B0B0B4A
:102F000001021020200808102040102040800201FB
:102F100002010804020101020408102040808040E0
:102F200020100804020180040201804020100804DF
:102F3000020108040201010204081020408001027D
:102F40000408102040804572726F72207772697495
:102F5000696E6720746F20454550524F4D210A001D
:102F600091ECDCF411241FBECFEFD1E2DEBFCDBF68
:102F700000E00CBF84B78093A91314BE0FB6F89479
:102F8000A895809160008861809360001092600035
:102F90000FBE13E0A0E0B2E0ECE3F7E002E00BBF0D
:102FA00002C007900D92A836B107D9F723E1A8E631
:102FB000B3E001C01D92A93AB207E1F717E1C1EBF6
:102FC000D7E100E006C021970109802FFE010F9490
:102FD0003500C03BD10780E00807A9F70E94BFED8C
:102FE0000D948D030C940000CF93DF93EC01CB0183
:102FF000BA010E9474F920E030E040E251E40F94FD
:103000002C01688379838A839B83DF91CF91089514
:10301000CF93DF93EC01CB01BA010E9474F92AE04F
:1030200037ED43E25DE30F942C010F94990168831F
:1030300079838A839B83DF91CF910895CF93DF9328
:10304000EC01CB01BA010E9474F92AE037ED43E2AA
:103050005DE30F942C01688379838A839B83DF91DE
:10306000CF910895CF93DF93EC01CB01BA010E9479
:1030700074F9688379838A839B83DF91CF91089564
:10308000CF93DF93EC01CB01BA010E9474F920E0E9
:1030900030E048EC52E40F942C01688379838A83F2
:1030A0009B83DF91CF910895CF93DF93EC01CB0108
:1030B000BA010E9474F90F94940179836883DF91B7
:1030C000CF910895CF93DF93EC01CB01BA010E9419
:1030D00074F920E030E04AE754E40F942C0168834F
:1030E00079838A839B83DF91CF910895FC0180814E
:1030F0000895FC0184910895AF92BF92CF92DF9220
:10310000EF92FF920F931F93CF93DF93EC015B013C
:103110008A01FB01199587FD16C0C82ED12CF12C10
:10312000E12C2196F801C082D182E282F382CE01A5
:10313000DF91CF911F910F91FF90EF90DF90CF9093
:10314000BF90AF900895982F907E903CA9F48F7116
:1031500090E0B0E0A0E06C017D0156E0CC0CDD1CFD
:10316000EE1CFF1C5A95D1F7CE010196F501199579
:103170008F73C82A2296D6CF982F907F903E11F554
:103180008F7090E0B0E0A0E06C017D0136E0CC0CE7
:10319000DD1CEE1CFF1C3A95D1F7CE010196F5011E
:1031A00019958F73C82A46E0CC0CDD1CEE1CFF1C61
:1031B0004A95D1F7CE010296F50119958F73C82A69
:1031C0002396B0CF982F987F903F79F5877090E045
:1031D000B0E0A0E06C017D0186E0CC0CDD1CEE1CB3
:1031E000FF1C8A95D1F7CE010196F50119958F73D1
:1031F000C82A96E0CC0CDD1CEE1CFF1C9A95D1F77A
:10320000CE010296F50119958F73C82A26E0CC0CE1
:10321000DD1CEE1CFF1C2A95D1F7CE010396F501AB
:1032200019958F73C82A24967DCF982F907C90385B
:1032300041F4807C803869F42196CE01F50119951E
:10324000F8CF8E7F8D3F28F02196CE01F50119959C
:10325000F8CFC12CD12C760165CFCF93DF93DB0162
:10326000F9019C919130C1F0943080F094509C937E
:103270008830D1F480819181009771F0019791831A
:103280008083480F591FEA01188206C08C3539F433
:103290009C5F9C93943041F4DF91CF9108958B33E0
:1032A00039F781E08C93F8CF20813181B9016F5FCC
:1032B0007F4F71836083420F531FEA0188838081AF
:1032C00091818F3591056CF7E7CF0F931F9381E0C4
:1032D0000091C4121091C5122091C6123091C712EC
:1032E0004091C0125091C1126091C2127091C312EC
:1032F000041715072607370708F480E01F910F9180
:10330000089590E080E008952091BE03833021F479
:1033100025FD0CC024FD0CC030E0A90102C055956C
:1033200047958A95E2F7CA018170089581E0089572
:1033300080E008958091DF0384FD0BC08091E1035C
:1033400087FD07C09091E203937081E019F480E05B
:10335000089581E008952FEB280F2A3108F047C027
:10336000E22FF0E08091DF039091E003A091E10370
:10337000B091E20304C0B695A795979587952A95D5
:10338000D2F780FD02C081700895E054FC4FE081C7
:10339000EE2341F18091B1069091B206E80FF92F2A
:1033A000F11D808190ED980F9A3030F08E3251F4FB
:1033B000818180538A3098F4F093B403E093B3038F
:1033C00081E008958D3211F08B3249F4818190EDC6
:1033D000980F9A3088F38E3211F48281EACFF0E0B0
:1033E000E0E0EACF1092B4031092B303E9CF80E09B
:1033F0000895B1DF882341F081E02091B30330913B
:10340000B403232B09F480E008952F923F924F924A
:103410005F926F927F928F929F92AF92BF92CF9264
:10342000DF92EF92FF920F931F93CF93DF93CDB76D
:10343000DEB72E970FB6F894DEBF0FBECDBFE82ED5
:10344000D62E042F122F282F30E03C872B87462FB3
:1034500050E05A87498765E0F62EF29EC001F39E40
:10346000900D11249E878D87FA01E80FF91FEE0F4A
:10347000FF1FEE0FFF1FE258FB4F608171818281B9
:1034800093819B01AC010F94FF02882309F434C19E
:10349000E00E612F6D0DFE9CF0011124A985BA8507
:1034A000AE0FBF1FAA0FBB1FAA0FBB1FA258BB4F57
:1034B000AC901196BC9011971296CC9012971396DF
:1034C000DC90E00EFE9CA0011124A985BA85A40F12
:1034D000B51FAA0FBB1FAA0FBB1FA258BB4FEC9072
:1034E0001196FC90119712960C91129713969C903E
:1034F000862F90E0AD85BE85A80FB91FAA0FBB1F10
:10350000AA0FBB1FA258BB4F8C9011967C901197AD
:1035100012966C90129713965C90610F70E0AD85D7
:10352000BE85A60FB71FAA0FBB1FAA0FBB1FA258AD
:10353000BB4F4C9011963C90119712961C9112978C
:1035400013962C90E80FF91FEE0FFF1FEE0FFF1FD1
:10355000E258FB4FB081B98321812A8332813B83BA
:1035600083818C83FA01E60FF71FEE0FFF1FEE0F2A
:10357000FF1FE258FB4F90819D83A181AE83B281F2
:10358000BF83238128879701402F592DB701802FB2
:10359000992D0F94FF02882321F0E12CF12C00E0FB
:1035A000912C9501A601B501C6010F94FF02882355
:1035B00019F05701C02ED92C242D332D412F522D17
:1035C000642D732D812F922D0F94FF02882321F0FB
:1035D000412C312C10E0212C282D372D462D552D36
:1035E000682D772D862D952D0F94FF02882321F0CD
:1035F000842C732C612E522C2D813E814F81588555
:103600006D817E818F8198850F94FF02882321F040
:103610001D821E821F82188629813A814B815C811E
:1036200069817A818B819C810F94FF02882341F00C
:103630003D8139834E814A835F815B8388858C839A
:1036400085E0EB85FC858E9FD0018F9FB00D112406
:1036500029853A85A20FB31FAA0FBB1FAA0FBB1F54
:10366000A258BB4FBA87A9879501A601B501C6012B
:103670000F9450009701402F592D0F944F006B016C
:103680007C01282D372D462D552D682D772D862D23
:10369000952D0F945000242D332D412F522D0F9432
:1036A0004F009B01AC01C701B6010F9450006B01A4
:1036B0007C0129813A814B815C8169817A818B818E
:1036C0009C810F9450002D813E814F8158850F942D
:1036D0004F009B01AC01C701B6010F94500020E0E0
:1036E00030E040E450E40F942C01A985BA856D9335
:1036F0007D938D939C9313972E960FB6F894DEBF0F
:103700000FBECDBFDF91CF911F910F91FF90EF9032
:10371000DF90CF90BF90AF909F908F907F906F90F1
:103720005F904F903F902F90089520917D033091AE
:103730007E03280F391F30937E0320937D03209151
:10374000FB043091FC04280F391F3093FC042093B4
:10375000FB0420915D0430915E04820F931F9093CF
:103760005E0480935D0408950E9474F920E030E0C7
:1037700040E251E40F942C010C9432B40E9474F98D
:1037800020E030E040E251E40F942C010C94B1B3FE
:103790000E9474F92AE037ED43E25DE30F942C01B7
:1037A0000C9498B30E9474F92AE037ED43E25DE38C
:1037B0000F942C010C94FAB40E9474F90C94FAB48E
:1037C0000E9474F920E030E048EC52E40F942C01A0
:1037D0000C94D9B50E9474F90F949401CB010C9408
:1037E00021A70E9474F920E030E04AE754E40F94E6
:1037F0002C010C942DB5EF92FF920F931F938FE63F
:10380000E82E89E1F82E10E000E022E839E14BE4EF
:1038100051E261E779E188E799E10E94BAD61F9108
:103820000F91FF90EF9008950C94D78F0C94D78F41
:103830000C94D78F0C94D78F0C94898F0C94898F0C
:103840000C94898F0C94898F63E972E084E690E090
:103850000E946BA96AEB72E084E690E00C946BA97D
:103860008111F2CF68EB71E084E190E00C946BA9D8
:103870000E94758CF5CF80915B02882341F06091A6
:1038800043047091440441E081E00C9465D50895AF
:103890000E94ECBAE5CF0E94B6A2D6CFCF93DF93B9
:1038A000C0916406D0916506209729F16091600669
:1038B0007091610680916206909163060F94940165
:1038C0006E5F7F4F24976C177D07ACF47093F40400
:1038D0006093F3040E9467DB605A75418F4F9F4FDE
:1038E0006093F5047093F6048093F7049093F804C2
:1038F000DF91CF9108951092F5041092F604109282
:10390000F7041092F804F4CFCF92DF92EF92FF9277
:103910000F931F93CF93DF9300D000D01F921F927D
:10392000CDB7DEB78E010F5F1F4FD80130E020E02A
:10393000FB01E20FF31FE491ED932F5F3F4F28301F
:103940003105B1F7877098E0899FB0011124606458
:1039500088E991E10E94DDDB83E790E00197F1F7D0
:103960007801E8E0EE0EF11C8BE9C82ED12CF801AD
:1039700061918F0188E991E10E945ABDC6010197CA
:10398000F1F7E016F10699F728960FB6F894DEBF26
:103990000FBECDBFDF91CF911F910F91FF90EF90A0
:1039A000DF90CF900895CF92DF92EF92FF920F9326
:1039B0001F93CF93DF9300D000D0CDB7DEB78A013D
:1039C00046E0469F9001479F300D1124BC01620FD5
:1039D000731F46E050E0CE0101960E949EF8C98018
:1039E000DA80EB80FC80F801408151816281738133
:1039F0008FEF9FEFC416D506E606F70640F081E08C
:103A000090E04C155D056E057F0508F080E0269678
:103A10000FB6F894DEBF0FBECDBFDF91CF911F91DF
:103A20000F91FF90EF90DF90CF9008950F931F9329
:103A3000CF93DF93CDB7DEB72E970FB6F894DEBFE6
:103A40000FBECDBF8A011E861D866F83788789874A
:103A50009A872FEF2B87603871058105910538F41F
:103A600088E991E10E945ABD81E090E02FC09E015B
:103A7000235F3F4FAE01495F5F4F69EB70E084EF1A
:103A800092E10E94BCCD97FD2CC08D859E8526E0DD
:103A9000289FB001299F700D11246C507D4E46E087
:103AA00050E0CE0101960E949EF86D8188E991E177
:103AB0000E945ABD01301105B9F26E816623A1F250
:103AC00088E991E10E945ABD82E090E02E960FB6FF
:103AD000F894DEBF0FBECDBFDF91CF911F910F9144
:103AE00008959E01235F3F4FAE01495F5F4F63E63C
:103AF00070E082EA90E10E94BCCD97FD0BC08D85FD
:103B00009E8526E0289FB001299F700D11246E55D7
:103B10007F4EC5CF6FE3A4CF8091B3039091B403E0
:103B2000009731F04AE050E070E060E00C9496F7C6
:103B300060E070E0CB0108958091B3039091B403ED
:103B4000009731F04AE050E070E060E00C9469F6D4
:103B500060E070E0CB010895EFDF97FD0AC0ECDF75
:103B60006F3F71058105910509F02CF4E5DF862F83
:103B7000089580E008958FEF0895CF93C62F39DC24
:103B8000882311F0CF91E8CF8C2FCF9108958091A9
:103B9000B3039091B403892B39F0DEDF91E08111FA
:103BA00001C090E0892F089591E0FCCFCF93DF937F
:103BB000C82FD62F1EDC882319F0DF91CF91E7CFD5
:103BC0008C2FC9DB811101C08D2FDF91CF9108951A
:103BD000B3DFCB010895CF93DF93EB010ADC882399
:103BE00019F0DF91CF91F4CFCE01DF91CF910895FD
:103BF0000F931F93CF938091B3039091B4030097D9
:103C0000E9F0FC018F01C1912C2F2F7D81F0C5348B
:103C100011F0C536B9F7F801108270E060E00E943B
:103C200013F5F801C083CF911F910F91089570E0B3
:103C300060E0CF911F910F910C9413F560E070E05C
:103C4000CB01F1CFCF92DF92EF92FF926A017B011D
:103C5000D0DB882329F0FF90EF90DF90CF90C8CF82
:103C6000C701B601FF90EF90DF90CF9008958F923B
:103C70009F92AF92BF92CF92DF92EF92FF920F93FB
:103C80001F93CF938FE5E82E84E0F82E00E910E132
:103C900090EAC92E90E1D92EC0E088E58C0FA9DB0F
:103CA000882309F474C0A4DF4B015C018C2F2CDB4A
:103CB000882309F462C0F801208131814281538157
:103CC000C501B4010F945000F701608371838283B2
:103CD0009383CF5FF4E0EF0EF11C0C5F1F4F84E085
:103CE000C80ED11CC330C9F685E483DB882309F4F0
:103CF00059C07EDF6B017C0183E006DB882371F015
:103D000020919C1030919D1040919E1050919F10D9
:103D1000C701B6010F9450006B017C01C0926B0487
:103D2000D0926C04E0926D04F0926E0440E050E09A
:103D3000BA0186E487DF20E030E0A9010F94770222
:103D400018167CF455DF20E030E040E752E40F9491
:103D50002C0160932702709328028093290290938C
:103D60002A02CF911F910F91FF90EF90DF90CF909B
:103D7000BF90AF909F908F900895F6012081318180
:103D800042815381C501B4010F944F009DCFF801CA
:103D900080819181A281B381F70180839183A28385
:103DA000B38397CF80919C1090919D10A0919E100D
:103DB000B0919F1080936B0490936C04A0936D045A
:103DC000B0936E04B3CFCF92DF92EF92FF920F9336
:103DD0001F93CF93DF936B017A01EC01C559DC4F40
:103DE00028813CE0389F8001399F100D112427FF66
:103DF00024C0FB011182108288818F5F88838881B3
:103E00009801280F311D87FD3A95C90120915B115A
:103E1000F6012817190629F024F088818C300CF45B
:103E20003CC080819181049680349C4908F475C01F
:103E3000F60180819181049672C088819801280FD3
:103E4000311D87FD3A95C90120915B11281719068C
:103E500099F294F28881A801480F511D87FD5A9567
:103E6000FA01EE0FFF1FE40FF51FED5EFE4E80819D
:103E700087FFC2CF8881F801E80FF11D87FDFA9511
:103E8000CF01EE0FFF1FE80FF91FED5EFE4E8081A0
:103E900060E08F770E94D2D9AFCF80819181288155
:103EA000A801420F511D27FD5A959A01FA01EE0F04
:103EB000FF1FE20FF31FED5EFE4E21813281820F64
:103EC000931FF7019183808388819801280F311D0A
:103ED00087FD3A95F901EE0FFF1FE20FF31FED5E2C
:103EE000FE4E808187FF20C08881080F111D87FD4D
:103EF0001A95F801EE0FFF1FE00FF11FED5EFE4E69
:103F0000808161E08F77DF91CF911F910F91FF90BA
:103F1000EF90DF90CF900C94D2D980E49CE9F70128
:103F2000918380838FEF8883DF91CF911F910F91D1
:103F3000FF90EF90DF90CF90089580917011909155
:103F40007111891B8F7089F48091AF06813069F0FF
:103F50009091C81292FB882780F992FF07C097FBC7
:103F6000882780F991E08927089581E00895E091FC
:103F70004204E63028F581E08E0F809342044091A0
:103F80008606509187066091880670918906209177
:103F900080069091810680917F0639E0E39FF001D1
:103FA0001124E45FFB4FA0919611B0919711B1835A
:103FB000A08342835383648375832683978380879A
:103FC0000895CF93DF93CDB7DEB78E8190918F0E9A
:103FD000891768F080938F0E9E01275F3F4F4F81B6
:103FE000588568E270E086E69EE00E9436F9DF912F
:103FF000CF9108950F931F93CF93DF938C016F3F61
:1040000019F410928F0E60E020918F0E862F062EED
:10401000000C990B2817190609F0F4F460938F0E21
:10402000C8010E94BDF8800F911FEC01C01BD10B8D
:10403000C932D1053CF00197FC012491207C203845
:10404000D1F3F3CFDD27AE01B80186E69EE00E94F2
:10405000DEF8CA59D14F1882DF91CF911F910F918D
:1040600008950F931F930E9467DB0091FF03109147
:1040700000042091010430910204601B710B820B3B
:10408000930B97FD0CC086B186FB882780F991E0E1
:104090008927349B8260329B84608093FE038091E9
:1040A000FE0381709091FE0391FD82609091FD036B
:1040B000981749F0813009F148F0823079F0833067
:1040C00091F08093FD031F910F910895913079F045
:1040D0009230B9F79091FC0391500CC0992339F0BC
:1040E0009330C1F3EECF9130A9F3923051F7909114
:1040F000FC039F5F9093FC03E4CF992359F3933023
:1041000001F7F5CFCF92DF92EF92FF92CF93C82FB6
:104110000E9467DB6B017C0124EA30E74DE75FE337
:1041200060912102709122028091230290912402D9
:104130000E946EF987FD18C08AEF90E0A0E0B0E021
:104140008C0D9D1DAE1DBF1D8093EC039093ED0360
:10415000A093EE03B093EF03C0931702CF91FF90AB
:10416000EF90DF90CF90089580E090E0DC01E8CF01
:10417000FC0180E0309749F09491992331F0907CD4
:10418000903809F08F5F3196F7CF0895009751F07E
:10419000FC0180E09191992331F0907C9038D1F32B
:1041A0008F5FF8CF80E0089569EB77E180E0ACDBCA
:1041B00061EB77E181E0A8DB69EA77E182E0A4DBEB
:1041C00061EA77E186E0A0DB69E977E187E09CDBE3
:1041D00061E977E183E098DB69E877E184E094DBEB
:1041E00061E877E185E090CBCF93823061F4C4E061
:1041F000C15058F088E0C89FB0011124665B784E2A
:104200008C2F82DBF5CFCF91CFCFCF9108950F9335
:104210001F93522F2091961130919711281739072B
:1042200081F190939711809396118B0130E020E0FB
:10423000009386061093870620938806309389069C
:1042400040938006509381068B599A4321F4109233
:104250007F061092420488E991E10E94E5DB81E04B
:1042600020919611309197112B593A4309F080E033
:10427000BBDF82E080935B0281E080939606109220
:104280007D061F910F91089520E040E070E060E00E
:104290008BE99AE3BCCFCF930E94B6A20E94758CA3
:1042A000C82F882319F080E00E94808B8C2FD8DAE9
:1042B000CF91EACF8DE799E190935A068093590602
:1042C000E3CFCF93DF93C0914204CC23B1F0C15030
:1042D000C093420489E0C89FE0011124C45FDB4F12
:1042E0006A817B812F814E818881998190DF8885C9
:1042F00080937F06DF91CF910895DF91CF91C4CF56
:104300004F925F926F927F928F929F92AF92BF92E5
:10431000CF92DF92EF92FF921F93CF93DF9300D063
:104320001F92CDB7DEB70E9467DB6B017C018091E5
:1043300017028F3FC1F10E9467DB8090EC039090E1
:10434000ED03A090EE03B090EF03681979098A0994
:104350009B0997FD28C080917011909171118F5F1A
:104360008F70891701F1E0911702E53008F053C012
:1043700024E0E29FF0011124E458FD4F80819181F7
:10438000A281B38189839A83AB83BC8320E030E030
:10439000A901BE016F5F7F4F80E990E10E948DD03F
:1043A0008FEF809317025DDE8091FE0382FF3CC099
:1043B0008091FB0381113AC091E09093FB038091BF
:1043C0000304892780937E061092030483E0809380
:1043D0005B021092FE030E9467DB6C507E4F8F4F92
:1043E0009F4F6093FF0370930004809301049093A8
:1043F000020468E873E182E090E00E946BA916E095
:104400001150A1F00E940FA962E070E080E090E0FE
:104410000E94CDDAF5CF80915C0290915D02A0916F
:104420005E02B0915F02AECF1092FB038091F70362
:104430009091F803A091F903B091FA03A7019601B6
:10444000281B390B4A0B5B0BDA01C901B7FD88C188
:10445000D701C6018C599F4FAF4FBF4F8093F703D1
:104460009093F803A093F903B093FA036091FC03CF
:10447000062E000C770B77FF03C0719561957109CB
:104480009091FC038091F603981398C0633008F074
:1044900095C01092FC038091FC038093F603643076
:1044A00008F09CC080917E0681111AC180919611FE
:1044B000909197118B599A4341F480911802882367
:1044C00009F420C18150809318020E9428928090A4
:1044D000CB069090CC06A090CD06B090CE06811170
:1044E0000E94359220915B02222309F44BC0D50132
:1044F000C4014AE0B695A795979587954A95D1F757
:10450000009741E0A407B10520F08FEF9FEFA0E0F6
:10451000B0E096958795009739F04091F00350915F
:10452000F1034817590770F5223038F0243008F4A9
:10453000FBC0243011F410925B02E0919611F091CF
:104540009711199510927E0680919611909197116E
:104550008B599A43F9F40E9467DBDC01CB018C197B
:104560009D09AE09BF098090F0039090F103B12C32
:10457000A12C88169906AA06BB0620F49093F10395
:104580008093F00380919611909197118B599A43E3
:1045900009F4CEC080917F068111CAC08091F203D8
:1045A0009091F303A091F403B091F503C81AD90ACE
:1045B000EA0AFB0AF7FCCAC067DEC8C0633009F02C
:1045C0006ACF8091FC0387FD07C081E0880F880FC8
:1045D0008093FC0364E05FCF8FEFF8CF80919B0660
:1045E00021E030E040E050E0882309F456C080909C
:1045F000970690909806A0909906B0909A0681141C
:104600009104A104B104E9F170E090E080E00E941F
:1046100072F920E030E040E85EE30E94D3F92B011C
:104620003C01C701B601681979098A099B090E94F2
:1046300072F99B01AC01C301B2010F942C0120E07F
:1046400030E04AE754E40E94D3F94B015C0120E0DA
:1046500030E040EA52E40F94770224E630E040E094
:1046600050E087FF12C020E030E040EF51E4C50188
:10467000B4010F9477022AE030E040E050E087FF79
:1046800004C021E030E040E050E0C0929706D092B4
:104690009806E0929906F0929A06A091FC030A2EE1
:1046A000000CBB0B0E94E0FF24E030E040E050E053
:1046B0000E94BAFF8091860690918706A091880695
:1046C000B0918906820F931FA41FB51F80938606A1
:1046D00090938706A0938806B09389061092FC03F6
:1046E000D701C6018856954CAF4FBF4F8093F20358
:1046F0009093F303A093F403B093F50381E08093C8
:104700005B02D4CE89E0809318028091F0039091EF
:10471000F103009729F001979093F1038093F00340
:1047200081E080935B02D1CE81E080935B0205CF74
:1047300038E9C30E3AE3D31EE11CF11CC092F20328
:10474000D092F303E092F403F092F50380915B02C0
:104750008130D1F0833021F488E991E10E94E5DBDA
:104760000F900F900F900F90DF91CF911F91FF90BE
:10477000EF90DF90CF90BF90AF909F908F907F9001
:104780006F905F904F90089510925B02E9CFCF93A6
:1047900080910404811109C087E198E19093440459
:1047A0008093430481E080930404E1DB20E040E057
:1047B00070E060E08BE39CE12ADDC1E0C0937F06FE
:1047C0000E94FA8F10927F067CDDC0937F0660E026
:1047D0008DE69DE20FDC83E198E190935A06809389
:1047E0005906CF91089520E044E064E188E991E121
:1047F0000E94ECDB81E020919611309197112B59AA
:104800003A4309F080E0F0DC88E991E10C94E5DBC3
:10481000EADF3E98469A3C98449A3A98429A21DCBC
:104820001092FC0308954FEF5FEF00C9AF92BF9263
:10483000CF92DF92EF92FF920F931F93CF93DF936C
:1048400000D01F92CDB7DEB76C015B017A0110E09A
:1048500000E00E151F05E0F419821A821B821C82EB
:10486000AE014F5F5F4FB501C6010E947C186C011D
:1048700069817A818B819C81611571058105910522
:1048800039F0A701401B510BD1D8080F191FE1CFF8
:10489000C8010F900F900F900F90DF91CF911F9153
:1048A0000F91FF90EF90DF90CF90BF90AF90089561
:1048B000AF92BF92CF92DF92EF92FF920F931F932E
:1048C000CF93DF9300D01F92CDB7DEB77C01062FC8
:1048D0005A01122F862F660F990B9C0128583D4FC5
:1048E000690111160CF03CC0AE014F5F5F4F69E7E4
:1048F00078E1C7010E947C187C0169817A818B81F3
:104900009C81611571058105910551F16D3371052A
:104910008105910509F458C06E377105810591052F
:1049200009F452C06A3271058105910549F507FF06
:104930000FC085EC97E10E3F11F081EC97E1412F1C
:10494000012E000C550B69E778E170DF181B6AC077
:1049500065E470E080E090E066DF1150B9F510E0AA
:10496000812F0F900F900F900F90DF91CF911F919B
:104970000F91FF90EF90DF90CF90BF90AF90089590
:10498000643271058105910569F4A114B104C9F07F
:10499000412F012E000C550B69E778E1C50146DF78
:1049A000181B9FCF603471058105910551F411509A
:1049B000F6016081062E000C770B880B990B33DF14
:1049C00090CF31DF11508DCF07FDB3CF61E08981EA
:1049D0009A81AB81BC81CD97A105B10509F460E056
:1049E000600F6A30A4F01150862F6AE00F94010026
:1049F000092F682F880F770B605D7F4F072E000C03
:104A0000880B990B10DF112309F4A9CF602F062E14
:104A1000000C770B605D7F4F072E000C880B990B05
:104A200002DF1150112309F49ACF412F012E000CFF
:104A3000550B69E778E1C701F9DE181B91CF4FEFFD
:104A40005FEF66E778E1F2CE4FEF5FEF69E778E17D
:104A5000EDCEFACF0F931F93CF93DF9300D000D00A
:104A60001F921F92CDB7DEB70091640210916502CC
:104A700020916602309167020D831E832F83388751
:104A8000009168021091690220916A0230916B02D4
:104A900009831A832B833C8390919F11691710F02F
:104AA0006FEF690F262F30E04091A0112C0F3D1FB2
:104AB000F901403199F4943089F46181680F60689C
:104AC00088E991E128960FB6F894DEBF0FBECDBFFE
:104AD000DF91CF911F910F910C94DDDB6581EECFBB
:104AE000FC01A081B1811C92A281B3818C918F5F66
:104AF0008C930280F381E02D608180E0ABCF4F92F8
:104B00005F926F927F928F929F92BF92CF92DF922D
:104B1000EF92FF920F931F93CF93DF9300D000D0BB
:104B20001F921F92CDB7DEB77C013B016A0149019C
:104B3000FB016081FC0180818DDFC114D10461F132
:104B4000FA82E9827C826B8201111FC0AE014B5F49
:104B50005F4FB401C6010E947C186C016D817E819B
:104B60008F8198856115710581059105A9F05BDE3E
:104B7000F70180818F5F8083843140F3CE010196FD
:104B8000AFDFE4CFB12C860129C08601B12C26C04D
:104B9000452846284728B1F728960FB6F894DEBF77
:104BA0000FBECDBFDF91CF911F910F91FF90EF907E
:104BB000DF90CF90BF909F908F907F906F905F908D
:104BC0004F900895B39407C0B1102EC00115110580
:104BD000C9F20F5F1F4F01151105A9F2AE014B5F1E
:104BE0005F4FB401C6010E947C186C014D805E804D
:104BF0006F8078844114510461047104A9F0F0E2DB
:104C00004F16510461047104F9F2D301C2018D976A
:104C1000A109B1090297A105B10530F04BE2441694
:104C200051046104710471F6F7018081482F4B0D26
:104C30005527551F453151052CF0853018F0CE0110
:104C400001964EDF81E0411451046104710409F4BE
:104C500080E0B80EF70180818B0D8083BB2009F4C2
:104C600097CFBA94AE014B5F5F4FB401C8010E9469
:104C70007C188C016D817E818F819885D4DDEECF8B
:104C8000CF92DF92EF92FF9269017A01E3DEC701D2
:104C9000B601FF90EF90DF90CF90C5CDCF92DF921D
:104CA000FF920F931F93CF93DF938C01EB01C09082
:104CB0009D06D0909E06F0909C0661E080E0CADEE2
:104CC00023E1A6016F2DC801F3DD182F2097F1F025
:104CD0006AE370E080E090E0A6DDCE0157DA8F5FF6
:104CE000115061E0181708F462E020E230E040E083
:104CF00050E094E1981B892FC3DFCE01DF91CF9163
:104D00001F910F91FF90DF90CF9099CEDF91CF91BF
:104D10001F910F91FF90DF90CF9008958F929F92F7
:104D2000AF92BF92CF92DF92EF92FF92CF9380919A
:104D30007E0610927E06882361F010927F06CF9146
:104D4000FF90EF90DF90CF90BF90AF909F908F90AB
:104D5000B8CA81E080937F0680908606909087068F
:104D6000A0908806B090890681149104A104B10432
:104D700009F44AC01092860610928706109288069F
:104D800010928906B401092C000C880B990B0E9423
:104D900074F92091D8063091D9064091DA065091E5
:104DA000DB060E94D3F92091671130916811409180
:104DB000691150916A110F9450006B017C0120E041
:104DC00030E040EA51EC0F94770287FD1DC020E0EF
:104DD00030E040EA51E4C701B6010E946EF91816AE
:104DE0009CF084E00E94DB9C811103C0C4010E94FE
:104DF000951BC0926711D0926811E0926911F092F0
:104E00006A1182E080935B0280915B02882309F43F
:104E1000A1C0C0906711D0906811E0906911F09026
:104E20006A1120E030E040E251E4C701B6010E947F
:104E3000D3F920E030E04AE754E40E94D3F94B0173
:104E40005C0120E030E0A901C701B6010E946EF9C3
:104E500020E030E040EA50E487FF04C020E030E08A
:104E600040EA50ECC501B4010F94500020E030E05E
:104E700040E251E40F942C010F9494016B017C01EA
:104E80008BE2F7FE09C0F094E094D094C094C11C6A
:104E9000D11CE11CF11C8DE280934504C701B601D1
:104EA00020E137E240E050E00E94BAFF8AE0882E1D
:104EB000912CA12CB12CCA01B901A50194010E9429
:104EC000BAFF605D60934604C701B60128EE33E087
:104ED00040E050E00E94BAFFCA01B901A501940167
:104EE0000E94BAFF605D609347048EE2809348049D
:104EF000C701B60124E630E040E050E00E94BAFF6E
:104F0000CA01B901A50194010E94BAFF605D6093D6
:104F10004904C701B601A50194010E94BAFFC62F3A
:104F2000CA01B901A50194010E94BAFF605D6093B6
:104F30004A04C05DC0934B0465E474E086E298E1E6
:104F4000CF91FF90EF90DF90CF90BF90AF909F9068
:104F50008F90A4CECF91FF90EF90DF90CF90BF9035
:104F6000AF909F908F9008950F931F93CF93DF93EF
:104F7000FC01EB018091860690918706A09188063E
:104F8000B0918906B7FF08C0109286061092870676
:104F9000109288061092890680918A0690918B065D
:104FA000A0918C06B0918D0640918606509187069F
:104FB000609188067091890684179507A607B70740
:104FC00044F48093860690938706A0938806B09356
:104FD000890680915B028823D9F0609186067091E2
:104FE0008706809188069091890600918E0610911F
:104FF0008F062091900630919106600F711F821FDD
:10500000931F1995BC01809194069091950646DEF8
:1050100080917E06811108C0809183068823C9F1A2
:1050200080915B028823A9F180919206909193066A
:105030000097B1F0409186065091870660918806EE
:105040007091890600918E0610918F06209190062E
:1050500030919106400F511F621F731FFE01199579
:10506000E0918406F0918506309741F080918306A7
:10507000811103C080917E068111199580917E0671
:1050800010927E06882329F0DF91CF911F910F9116
:1050900018C9DF91CF911F910F9108956BEC77E7BD
:1050A00084EB9BE161CF64EF77E18EEB9BE15CCF1A
:1050B00068E078E188EC9BE157CF6EE178E182ED22
:1050C0009BE152CF62E378E18CED9BE14DCF60E450
:1050D00078E180EE9BE148CF64E578E18AEE9BE1E0
:1050E00043CF62E678E181EF9BE13ECFCF92DF9242
:1050F000EF92FF920F931F93CF93DF93C82ED62E7C
:105100007A01E901209709F45DC0C901002359F132
:105110002FD8182F2EE330E040E050E0C11004C03B
:1051200020E230E040E050E06D2D80E0A9DD22E19A
:10513000211B40919D0650919E0660919C06C701DF
:10514000B7DBF82E112309F441C06AE370E080E078
:1051500090E069DBFF2049F060E270E080E090E0E1
:1051600062DBFA94F7CF12D8D4CFCE01002349F0F6
:10517000DF91CF911F910F91FF90EF90DF90CF9033
:1051800063CCDF91CF911F910F91FF90EF90DF9053
:10519000CF9055CC2EE330E040E050E06D2D80E024
:1051A0006FDD40919D0650919E0622E160919C0624
:1051B000C701DF91CF911F910F91FF90EF90DF908A
:1051C000CF9076CB8111E6CF10E0AACFDF91CF91BF
:1051D0001F910F91FF90EF90DF90CF9008950F9364
:1051E000CF93DF93EA01811101C020E2022E000C6F
:1051F000330B440B550B80E043DD40919D065091ED
:105200009E0622E160919C06CE0152DBC82FCC2382
:1052100039F060E270E080E090E005DBC150F7CF4C
:10522000602F000F770B880B990BDF91CF910F91B7
:10523000FACAEF92FF920F931F93CF93DF930E94CE
:105240006AD6D0918006C0E0D1112DC0809182062F
:105250008823B9F080915B02882359F081E0909116
:105260008206911180E003E023E04DE559E16C2FC7
:10527000B6DFDF5FCF5FC43039F787E08093810608
:105280000BC080917E0610927E06882319F319D8F0
:10529000809196068823F1F2DF91CF911F910F91B3
:1052A000FF90EF900895D130E1F580918206813032
:1052B000E1F080915B028823E1F211E080918206A7
:1052C000813009F010E06091B70B7091B80B8091BC
:1052D000B90B9091BA0B0E94FAB400E09C0149EA24
:1052E00058E16C2F812F02DFC4CF80917E0610928F
:1052F0007E068823F1F20E94ECD5E12C1CE3F12E0E
:105300000CE116E420E030E040E85FE367EB7BE08F
:1053100089EA98E10E94B7D780919606882349F2DE
:10532000BBCFD23009F002C1809182068230D1F029
:1053300080915B02882309F49CCF11E08091820662
:10534000823009F010E06091BB0B7091BC0B809132
:10535000BD0B9091BE0B0E94FAB400E09C014FE996
:1053600058E1BFCF80917E0610927E06882301F31C
:105370000E94ECD5E12C1CE3F12E0CE116E420E0B8
:1053800030E040E85FE36BEB7BE08FE998E10E945F
:10539000B7D780919606882359F27ECF80918206F6
:1053A0008330D1F080915B02882309F462CF11E051
:1053B00080918206833009F010E06091BF0B7091FC
:1053C000C00B8091C10B9091C20B0E94FAB400E017
:1053D0009C0145E958E185CF80917E0610927E06BA
:1053E000882301F30E94ECD5E12C1CE3F12E0CE1A3
:1053F00016E420E030E040E85FE36FEB7BE085E916
:1054000098E10E94B7D780919606882359F244CF3D
:10541000809182068430D1F080915B02882309F468
:1054200028CF11E080918206843009F010E060916D
:10543000C30B7091C40B8091C50B9091C60B0E9459
:10544000FAB400E09C014BE858E14BCF80917E0616
:1054500010927E06882301F30E94ECD5E12C1CE318
:10546000F12E0CE116E420E030E040E85FE363EC6D
:105470007BE08BE898E10E94B7D78091960688235D
:1054800059F20ACF809182068530D1F080915B027B
:10549000882309F4EECE11E080918206853009F070
:1054A00010E06091D30B7091D40B8091D50B90914B
:1054B000D60B0E94FAB400E09C014EE758E111CFF0
:1054C00080917E0610927E06882301F30E94ECD51F
:1054D000E12C1CE3F12E0CE116E420E030E0A90100
:1054E00063ED7BE08EE798E10E94B7D78091960646
:1054F000882361F2D1CE80917E0610927E068823A9
:1055000029F10E94ECD5E12C1CE3F12E0CE116E40C
:1055100020E030E0A90167ED7BE08FE698E10E9492
:10552000B7D780919606882389F0B6CED33009F498
:1055300035CFD43009F46CCFD53009F4A3CFD630B1
:1055400009F097CE809182068630A9F280915B02A5
:10555000882309F48ECE11E080918206863009F00E
:1055600010E06091D70B7091D80B8091D90B90917E
:10557000DA0B0E94FAB400E09C014FE658E1B1CE8C
:105580004F925F926F927F928F929F92AF92BF9253
:10559000CF92DF92EF92FF920F931F93CF93DF93FF
:1055A00000D000D0CDB7DEB7C090970BD090980B4D
:1055B000E090990BF0909A0B80919B0B90919C0B33
:1055C000A0919D0BB0919E0B8C159D05AE05BF055E
:1055D00010F4D701C601C090930BD090940BE090CB
:1055E000950BF090960BBC01CD016C157D058E05D9
:1055F0009F0510F4C701B6010E9472F92B013C010E
:105600000E946AD6209180062E831D828E81811190
:1056100042C0809182068823D9F080915B02882362
:1056200059F081E090918206911180E003E023E03F
:105630004DE559E16D81D3DD8E818F5F8E832D81A4
:105640002F5F2D83243011F788E0809381060CC0F2
:1056500080917E0610927E068823F9F20E946121D5
:10566000809196068823C9F226960FB6F894DEBF7D
:105670000FBECDBFDF91CF911F910F91FF90EF90A3
:10568000DF90CF90BF90AF909F908F907F906F9062
:105690005F904F9008952E81213009F07CC0809159
:1056A00082068130E1F080915B02882329F211E0CB
:1056B00080918206813009F010E06091C70B7091F3
:1056C000C80B8091C90B9091CA0B0E94FAB400E0FC
:1056D0009C014EEF58E16D81812F08DDADCF8091A7
:1056E0007E0610927E068823F1F20E94ECD52AE015
:1056F00037ED43E25DE3C301B2010E94D3F94B01F0
:105700005C0120E030E040E05FE40E946EF987FD3C
:1057100005C0812C912CA12C3FE4B32E2AE037ED5B
:1057200043E25DE36091C70B7091C80B8091C90B98
:105730009091CA0B0E94D3F920E030E040E85FE38B
:105740000F944F000F94990169837A838B839C8314
:10575000C501B4010F9494017B018C0121E0E21A90
:10576000F10801091109912C812C2DE5A22E28E2C6
:10577000B22EC980DA8021E030E040E050E067ECF2
:105780007BE08EEF98E10E94F8D580919606882301
:1057900009F489CF69CF8E81823009F07FC1809171
:1057A00082068230D1F080915B02882309F444CFD5
:1057B00011E080918206823009F010E06091CB0BFD
:1057C0007091CC0B8091CD0B9091CE0B0E94FAB4CE
:1057D00000E09C0140EF58E17ECF80917E06109260
:1057E0007E06882301F30E94ECD560919F0B709197
:1057F000A00B8091A10B9091A20B0E9472F97B01EA
:105800008C0120E030E048EC52E46BEC7BE080EF70
:1058100098E10E94B7D780919606882321F224CF81
:10582000809182068330D1F080915B02882309F455
:1058300003CF11E080918206833009F010E060917F
:10584000CF0B7091D00B8091D10B9091D20B0E9415
:10585000FAB400E09C0143EE58E13DCF80917E0612
:1058600010927E06882301F30E94ECD52AE037EDE2
:1058700043E25DE3C301B2010E94D3F94B015C0135
:1058800020E030E040E05FE40E946EF987FD05C053
:10589000812C912CA12C9FE4B92E2AE037ED43E214
:1058A0005DE36091CF0B7091D00B8091D10B909103
:1058B000D20B0E94D3F920E030E040E85FE30F9480
:1058C0004F000F94990169837A838B839C83C50170
:1058D000B4010F9494017B018C0121E0E21AF108DC
:1058E00001091109912C812C8DE5A82E88E2B82E92
:1058F000C980DA8021E030E040E050E06FEC7BE0EE
:1059000083EE98E10E94F8D580919606882309F4E9
:105910008BCFAACE809182068430E1F080915B0229
:10592000882309F489CE11E080918206843009F041
:1059300010E06091930B7091940B8091950B909176
:10594000960B0E9472F90E9498B300E09C0147ED0B
:1059500058E1C1CE80917E0610927E068823F1F236
:105960000E94ECD502E21CE124E630E040E050E089
:1059700063E97BE087ED98E10E943DD8809196062F
:10598000882361F271CE809182068530E1F08091AA
:105990005B02882309F450CE11E0809182068530A5
:1059A00009F010E06091970B7091980B8091990B22
:1059B00090919A0B0E9472F90E9498B300E09C01AA
:1059C0004BEC58E188CE80917E0610927E068823AB
:1059D000F1F20E94ECD500E21CE124E630E040E068
:1059E00050E067E97BE08BEC98E10E943DD8809124
:1059F0009606882361F238CE809182068630E1F0E7
:105A000080915B02882309F417CE11E08091820611
:105A1000863009F010E060919B0B70919C0B809197
:105A20009D0B90919E0B0E9472F90E9498B300E02A
:105A30009C014FEB58E14FCE80917E0610927E067E
:105A40008823F1F20E94ECD50EE11CE12AE030E05F
:105A500040E050E06BE97BE08FEB98E10E943DD89D
:105A600080919606882361F2FFCD80917E06109288
:105A70007E06882339F10E94ECD50CE11CE124E676
:105A800030E040E050E06FE97BE083EB98E10E947A
:105A90003DD8809196068823A9F0E6CD8E8183308B
:105AA00009F4BECE843009F435CF853009F46BCFCC
:105AB000863009F4A1CF873009F0BECD80918206EF
:105AC000873099F280915B02882309F4B5CD11E00B
:105AD00080918206873009F010E060919F0B7091F1
